{
  "contractName": "Dex",
  "abi": [
    {
      "inputs": [],
      "payable": false,
      "stateMutability": "nonpayable",
      "type": "constructor"
    },
    {
      "anonymous": false,
      "inputs": [
        {
          "indexed": false,
          "internalType": "uint256",
          "name": "tradeId",
          "type": "uint256"
        },
        {
          "indexed": false,
          "internalType": "uint256",
          "name": "orderId",
          "type": "uint256"
        },
        {
          "indexed": true,
          "internalType": "bytes32",
          "name": "ticker",
          "type": "bytes32"
        },
        {
          "indexed": true,
          "internalType": "address",
          "name": "trader1",
          "type": "address"
        },
        {
          "indexed": true,
          "internalType": "address",
          "name": "trader2",
          "type": "address"
        },
        {
          "indexed": false,
          "internalType": "uint256",
          "name": "amount",
          "type": "uint256"
        },
        {
          "indexed": false,
          "internalType": "uint256",
          "name": "price",
          "type": "uint256"
        },
        {
          "indexed": false,
          "internalType": "uint256",
          "name": "date",
          "type": "uint256"
        }
      ],
      "name": "NewTrade",
      "type": "event"
    },
    {
      "constant": true,
      "inputs": [],
      "name": "admin",
      "outputs": [
        {
          "internalType": "address",
          "name": "",
          "type": "address"
        }
      ],
      "payable": false,
      "stateMutability": "view",
      "type": "function"
    },
    {
      "constant": true,
      "inputs": [],
      "name": "nextOrderId",
      "outputs": [
        {
          "internalType": "uint256",
          "name": "",
          "type": "uint256"
        }
      ],
      "payable": false,
      "stateMutability": "view",
      "type": "function"
    },
    {
      "constant": true,
      "inputs": [],
      "name": "nextTradeId",
      "outputs": [
        {
          "internalType": "uint256",
          "name": "",
          "type": "uint256"
        }
      ],
      "payable": false,
      "stateMutability": "view",
      "type": "function"
    },
    {
      "constant": true,
      "inputs": [
        {
          "internalType": "bytes32",
          "name": "",
          "type": "bytes32"
        },
        {
          "internalType": "uint256",
          "name": "",
          "type": "uint256"
        },
        {
          "internalType": "uint256",
          "name": "",
          "type": "uint256"
        }
      ],
      "name": "orderBook",
      "outputs": [
        {
          "internalType": "uint256",
          "name": "id",
          "type": "uint256"
        },
        {
          "internalType": "address",
          "name": "trader",
          "type": "address"
        },
        {
          "internalType": "enum Dex.Side",
          "name": "side",
          "type": "uint8"
        },
        {
          "internalType": "bytes32",
          "name": "ticker",
          "type": "bytes32"
        },
        {
          "internalType": "uint256",
          "name": "amount",
          "type": "uint256"
        },
        {
          "internalType": "uint256",
          "name": "filled",
          "type": "uint256"
        },
        {
          "internalType": "uint256",
          "name": "price",
          "type": "uint256"
        },
        {
          "internalType": "uint256",
          "name": "date",
          "type": "uint256"
        }
      ],
      "payable": false,
      "stateMutability": "view",
      "type": "function"
    },
    {
      "constant": true,
      "inputs": [
        {
          "internalType": "uint256",
          "name": "",
          "type": "uint256"
        }
      ],
      "name": "tokenList",
      "outputs": [
        {
          "internalType": "bytes32",
          "name": "",
          "type": "bytes32"
        }
      ],
      "payable": false,
      "stateMutability": "view",
      "type": "function"
    },
    {
      "constant": true,
      "inputs": [
        {
          "internalType": "bytes32",
          "name": "",
          "type": "bytes32"
        }
      ],
      "name": "tokens",
      "outputs": [
        {
          "internalType": "bytes32",
          "name": "ticker",
          "type": "bytes32"
        },
        {
          "internalType": "address",
          "name": "tokenAddress",
          "type": "address"
        }
      ],
      "payable": false,
      "stateMutability": "view",
      "type": "function"
    },
    {
      "constant": true,
      "inputs": [
        {
          "internalType": "address",
          "name": "",
          "type": "address"
        },
        {
          "internalType": "bytes32",
          "name": "",
          "type": "bytes32"
        }
      ],
      "name": "traderBalances",
      "outputs": [
        {
          "internalType": "uint256",
          "name": "",
          "type": "uint256"
        }
      ],
      "payable": false,
      "stateMutability": "view",
      "type": "function"
    },
    {
      "constant": true,
      "inputs": [
        {
          "internalType": "bytes32",
          "name": "ticker",
          "type": "bytes32"
        },
        {
          "internalType": "enum Dex.Side",
          "name": "side",
          "type": "uint8"
        }
      ],
      "name": "getOrders",
      "outputs": [
        {
          "components": [
            {
              "internalType": "uint256",
              "name": "id",
              "type": "uint256"
            },
            {
              "internalType": "address",
              "name": "trader",
              "type": "address"
            },
            {
              "internalType": "enum Dex.Side",
              "name": "side",
              "type": "uint8"
            },
            {
              "internalType": "bytes32",
              "name": "ticker",
              "type": "bytes32"
            },
            {
              "internalType": "uint256",
              "name": "amount",
              "type": "uint256"
            },
            {
              "internalType": "uint256",
              "name": "filled",
              "type": "uint256"
            },
            {
              "internalType": "uint256",
              "name": "price",
              "type": "uint256"
            },
            {
              "internalType": "uint256",
              "name": "date",
              "type": "uint256"
            }
          ],
          "internalType": "struct Dex.Order[]",
          "name": "",
          "type": "tuple[]"
        }
      ],
      "payable": false,
      "stateMutability": "view",
      "type": "function"
    },
    {
      "constant": true,
      "inputs": [],
      "name": "getTokens",
      "outputs": [
        {
          "components": [
            {
              "internalType": "bytes32",
              "name": "ticker",
              "type": "bytes32"
            },
            {
              "internalType": "address",
              "name": "tokenAddress",
              "type": "address"
            }
          ],
          "internalType": "struct Dex.Token[]",
          "name": "",
          "type": "tuple[]"
        }
      ],
      "payable": false,
      "stateMutability": "view",
      "type": "function"
    },
    {
      "constant": false,
      "inputs": [
        {
          "internalType": "bytes32",
          "name": "ticker",
          "type": "bytes32"
        },
        {
          "internalType": "address",
          "name": "tokenAddress",
          "type": "address"
        }
      ],
      "name": "addToken",
      "outputs": [],
      "payable": false,
      "stateMutability": "nonpayable",
      "type": "function"
    },
    {
      "constant": false,
      "inputs": [
        {
          "internalType": "uint256",
          "name": "amount",
          "type": "uint256"
        },
        {
          "internalType": "bytes32",
          "name": "ticker",
          "type": "bytes32"
        }
      ],
      "name": "deposit",
      "outputs": [],
      "payable": false,
      "stateMutability": "nonpayable",
      "type": "function"
    },
    {
      "constant": false,
      "inputs": [
        {
          "internalType": "uint256",
          "name": "amount",
          "type": "uint256"
        },
        {
          "internalType": "bytes32",
          "name": "ticker",
          "type": "bytes32"
        }
      ],
      "name": "withdraw",
      "outputs": [],
      "payable": false,
      "stateMutability": "nonpayable",
      "type": "function"
    },
    {
      "constant": false,
      "inputs": [
        {
          "internalType": "bytes32",
          "name": "ticker",
          "type": "bytes32"
        },
        {
          "internalType": "uint256",
          "name": "amount",
          "type": "uint256"
        },
        {
          "internalType": "uint256",
          "name": "price",
          "type": "uint256"
        },
        {
          "internalType": "enum Dex.Side",
          "name": "side",
          "type": "uint8"
        }
      ],
      "name": "createLimitOrder",
      "outputs": [],
      "payable": false,
      "stateMutability": "nonpayable",
      "type": "function"
    },
    {
      "constant": false,
      "inputs": [
        {
          "internalType": "bytes32",
          "name": "ticker",
          "type": "bytes32"
        },
        {
          "internalType": "uint256",
          "name": "amount",
          "type": "uint256"
        },
        {
          "internalType": "enum Dex.Side",
          "name": "side",
          "type": "uint8"
        }
      ],
      "name": "createMarketOrder",
      "outputs": [],
      "payable": false,
      "stateMutability": "nonpayable",
      "type": "function"
    }
  ],
  "bytecode": "0x608060405234801561001057600080fd5b5033600460006101000a81548173ffffffffffffffffffffffffffffffffffffffff021916908373ffffffffffffffffffffffffffffffffffffffff160217905550613454806100616000396000f3fe608060405234801561001057600080fd5b50600436106100ea5760003560e01c80639776aacf1161008c578063aa6ca80811610066578063aa6ca80814610277578063c9630cb014610295578063d9c0c950146102b1578063f851a440146102cd576100ea565b80639776aacf1461020f5780639ead72221461022b578063a8d2021a1461025b576100ea565b806372ce957e116100c857806372ce957e146101745780637f2c6246146101a4578063813ad083146101c0578063904194a3146101de576100ea565b80630bb431b6146100ef5780632a58b3301461012657806346e9658b14610144575b600080fd5b6101096004803603610104919081019061294d565b6102eb565b60405161011d989796959493929190613148565b60405180910390f35b61012e610387565b60405161013b919061312d565b60405180910390f35b61015e600480360361015991908101906128c2565b61038d565b60405161016b9190612f83565b60405180910390f35b61018e600480360361018991908101906127f8565b6104dc565b60405161019b919061312d565b60405180910390f35b6101be60048036036101b991908101906128fe565b610501565b005b6101c86115b5565b6040516101d5919061312d565b60405180910390f35b6101f860048036036101f3919081019061285d565b6115bb565b604051610206929190612fe2565b60405180910390f35b61022960048036036102249190810190612886565b6115ff565b005b610245600480360361024091908101906129ff565b611750565b6040516102529190612fc7565b60405180910390f35b61027560048036036102709190810190612a28565b611771565b005b61027f611a29565b60405161028c9190612fa5565b60405180910390f35b6102af60048036036102aa9190810190612a28565b611b50565b005b6102cb60048036036102c6919081019061299c565b611d77565b005b6102d5612563565b6040516102e29190612f08565b60405180910390f35b6003602052826000526040600020602052816000526040600020818154811061031057fe5b906000526020600020906007020160009250925050508060000154908060010160009054906101000a900473ffffffffffffffffffffffffffffffffffffffff16908060010160149054906101000a900460ff16908060020154908060030154908060040154908060050154908060060154905088565b60055481565b60606003600084815260200190815260200160002060008360018111156103b057fe5b8152602001908152602001600020805480602002602001604051908101604052809291908181526020016000905b828210156104d0578382906000526020600020906007020160405180610100016040529081600082015481526020016001820160009054906101000a900473ffffffffffffffffffffffffffffffffffffffff1673ffffffffffffffffffffffffffffffffffffffff1673ffffffffffffffffffffffffffffffffffffffff1681526020016001820160149054906101000a900460ff16600181111561048057fe5b600181111561048b57fe5b815260200160028201548152602001600382015481526020016004820154815260200160058201548152602001600682015481525050815260200190600101906103de565b50505050905092915050565b6002602052816000526040600020602052806000526040600020600091509150505481565b82600073ffffffffffffffffffffffffffffffffffffffff1660008083815260200190815260200160002060010160009054906101000a900473ffffffffffffffffffffffffffffffffffffffff1673ffffffffffffffffffffffffffffffffffffffff1614156105a7576040517f08c379a000000000000000000000000000000000000000000000000000000000815260040161059e9061310d565b60405180910390fd5b837f444149000000000000000000000000000000000000000000000000000000000081141561060b576040517f08c379a00000000000000000000000000000000000000000000000000000000081526004016106029061308d565b60405180910390fd5b60018081111561061757fe5b83600181111561062357fe5b14156106bd5783600260003373ffffffffffffffffffffffffffffffffffffffff1673ffffffffffffffffffffffffffffffffffffffff16815260200190815260200160002060008781526020019081526020016000205410156106bc576040517f08c379a00000000000000000000000000000000000000000000000000000000081526004016106b3906130cd565b60405180910390fd5b5b60006003600087815260200190815260200160002060008060018111156106e057fe5b8660018111156106ec57fe5b146106f85760006106fb565b60015b600181111561070657fe5b815260200190815260200160002090506000808690505b8280549050821080156107305750600081115b1561138457600061078484848154811061074657fe5b90600052602060002090600702016004015485858154811061076457fe5b90600052602060002090600702016003015461258990919063ffffffff16565b905060008183116107955782610797565b815b90506107ac818461258990919063ffffffff16565b92506107de818686815481106107be57fe5b9060005260206000209060070201600401546125d390919063ffffffff16565b8585815481106107ea57fe5b9060005260206000209060070201600401819055503373ffffffffffffffffffffffffffffffffffffffff1685858154811061082257fe5b906000526020600020906007020160010160009054906101000a900473ffffffffffffffffffffffffffffffffffffffff1673ffffffffffffffffffffffffffffffffffffffff168b7fdb0c486e680ba8026643e6a85f8d157b5e7bcd4b32b54d564542570a9eb2041660065489898154811061089b57fe5b906000526020600020906007020160000154868b8b815481106108ba57fe5b906000526020600020906007020160050154426040516108de9594939291906131c6565b60405180910390a46001808111156108f257fe5b8860018111156108fe57fe5b1415610db35761096781600260003373ffffffffffffffffffffffffffffffffffffffff1673ffffffffffffffffffffffffffffffffffffffff16815260200190815260200160002060008d81526020019081526020016000205461258990919063ffffffff16565b600260003373ffffffffffffffffffffffffffffffffffffffff1673ffffffffffffffffffffffffffffffffffffffff16815260200190815260200160002060008c815260200190815260200160002081905550610a6d6109ee8686815481106109cd57fe5b9060005260206000209060070201600501548361262890919063ffffffff16565b600260003373ffffffffffffffffffffffffffffffffffffffff1673ffffffffffffffffffffffffffffffffffffffff16815260200190815260200160002060007f44414900000000000000000000000000000000000000000000000000000000008152602001908152602001600020546125d390919063ffffffff16565b600260003373ffffffffffffffffffffffffffffffffffffffff1673ffffffffffffffffffffffffffffffffffffffff16815260200190815260200160002060007f4441490000000000000000000000000000000000000000000000000000000000815260200190815260200160002081905550610b818160026000888881548110610af557fe5b906000526020600020906007020160010160009054906101000a900473ffffffffffffffffffffffffffffffffffffffff1673ffffffffffffffffffffffffffffffffffffffff1673ffffffffffffffffffffffffffffffffffffffff16815260200190815260200160002060008d8152602001908152602001600020546125d390919063ffffffff16565b60026000878781548110610b9157fe5b906000526020600020906007020160010160009054906101000a900473ffffffffffffffffffffffffffffffffffffffff1673ffffffffffffffffffffffffffffffffffffffff1673ffffffffffffffffffffffffffffffffffffffff16815260200190815260200160002060008c815260200190815260200160002081905550610d01610c45868681548110610c2457fe5b9060005260206000209060070201600501548361262890919063ffffffff16565b60026000888881548110610c5557fe5b906000526020600020906007020160010160009054906101000a900473ffffffffffffffffffffffffffffffffffffffff1673ffffffffffffffffffffffffffffffffffffffff1673ffffffffffffffffffffffffffffffffffffffff16815260200190815260200160002060007f444149000000000000000000000000000000000000000000000000000000000081526020019081526020016000205461258990919063ffffffff16565b60026000878781548110610d1157fe5b906000526020600020906007020160010160009054906101000a900473ffffffffffffffffffffffffffffffffffffffff1673ffffffffffffffffffffffffffffffffffffffff1673ffffffffffffffffffffffffffffffffffffffff16815260200190815260200160002060007f44414900000000000000000000000000000000000000000000000000000000008152602001908152602001600020819055505b60006001811115610dc057fe5b886001811115610dcc57fe5b141561136357610e02858581548110610de157fe5b9060005260206000209060070201600501548261262890919063ffffffff16565b600260003373ffffffffffffffffffffffffffffffffffffffff1673ffffffffffffffffffffffffffffffffffffffff16815260200190815260200160002060007f44414900000000000000000000000000000000000000000000000000000000008152602001908152602001600020541015610eb4576040517f08c379a0000000000000000000000000000000000000000000000000000000008152600401610eab906130ed565b60405180910390fd5b610f1781600260003373ffffffffffffffffffffffffffffffffffffffff1673ffffffffffffffffffffffffffffffffffffffff16815260200190815260200160002060008d8152602001908152602001600020546125d390919063ffffffff16565b600260003373ffffffffffffffffffffffffffffffffffffffff1673ffffffffffffffffffffffffffffffffffffffff16815260200190815260200160002060008c81526020019081526020016000208190555061101d610f9e868681548110610f7d57fe5b9060005260206000209060070201600501548361262890919063ffffffff16565b600260003373ffffffffffffffffffffffffffffffffffffffff1673ffffffffffffffffffffffffffffffffffffffff16815260200190815260200160002060007f444149000000000000000000000000000000000000000000000000000000000081526020019081526020016000205461258990919063ffffffff16565b600260003373ffffffffffffffffffffffffffffffffffffffff1673ffffffffffffffffffffffffffffffffffffffff16815260200190815260200160002060007f444149000000000000000000000000000000000000000000000000000000000081526020019081526020016000208190555061113181600260008888815481106110a557fe5b906000526020600020906007020160010160009054906101000a900473ffffffffffffffffffffffffffffffffffffffff1673ffffffffffffffffffffffffffffffffffffffff1673ffffffffffffffffffffffffffffffffffffffff16815260200190815260200160002060008d81526020019081526020016000205461258990919063ffffffff16565b6002600087878154811061114157fe5b906000526020600020906007020160010160009054906101000a900473ffffffffffffffffffffffffffffffffffffffff1673ffffffffffffffffffffffffffffffffffffffff1673ffffffffffffffffffffffffffffffffffffffff16815260200190815260200160002060008c8152602001908152602001600020819055506112b16111f58686815481106111d457fe5b9060005260206000209060070201600501548361262890919063ffffffff16565b6002600088888154811061120557fe5b906000526020600020906007020160010160009054906101000a900473ffffffffffffffffffffffffffffffffffffffff1673ffffffffffffffffffffffffffffffffffffffff1673ffffffffffffffffffffffffffffffffffffffff16815260200190815260200160002060007f44414900000000000000000000000000000000000000000000000000000000008152602001908152602001600020546125d390919063ffffffff16565b600260008787815481106112c157fe5b906000526020600020906007020160010160009054906101000a900473ffffffffffffffffffffffffffffffffffffffff1673ffffffffffffffffffffffffffffffffffffffff1673ffffffffffffffffffffffffffffffffffffffff16815260200190815260200160002060007f44414900000000000000000000000000000000000000000000000000000000008152602001908152602001600020819055505b6006600081548092919060010191905055508380600101945050505061071d565b600091505b8280549050821080156113d557508282815481106113a357fe5b9060005260206000209060070201600301548383815481106113c157fe5b906000526020600020906007020160040154145b156115ab5760008290505b600184805490500381101561150f578360018201815481106113fe57fe5b906000526020600020906007020184828154811061141857fe5b9060005260206000209060070201600082015481600001556001820160009054906101000a900473ffffffffffffffffffffffffffffffffffffffff168160010160006101000a81548173ffffffffffffffffffffffffffffffffffffffff021916908373ffffffffffffffffffffffffffffffffffffffff1602179055506001820160149054906101000a900460ff168160010160146101000a81548160ff021916908360018111156114c857fe5b0217905550600282015481600201556003820154816003015560048201548160040155600582015481600501556006820154816006015590505080806001019150506113e0565b508280548061151a57fe5b60019003818190600052602060002090600702016000808201600090556001820160006101000a81549073ffffffffffffffffffffffffffffffffffffffff02191690556001820160146101000a81549060ff021916905560028201600090556003820160009055600482016000905560058201600090556006820160009055505090558180600101925050611389565b5050505050505050565b60065481565b60006020528060005260406000206000915090508060000154908060010160009054906101000a900473ffffffffffffffffffffffffffffffffffffffff16905082565b600460009054906101000a900473ffffffffffffffffffffffffffffffffffffffff1673ffffffffffffffffffffffffffffffffffffffff163373ffffffffffffffffffffffffffffffffffffffff161461168f576040517f08c379a00000000000000000000000000000000000000000000000000000000081526004016116869061306d565b60405180910390fd5b60405180604001604052808381526020018273ffffffffffffffffffffffffffffffffffffffff168152506000808481526020019081526020016000206000820151816000015560208201518160010160006101000a81548173ffffffffffffffffffffffffffffffffffffffff021916908373ffffffffffffffffffffffffffffffffffffffff16021790555090505060018290806001815401808255809150509060018203906000526020600020016000909192909190915055505050565b6001818154811061175d57fe5b906000526020600020016000915090505481565b80600073ffffffffffffffffffffffffffffffffffffffff1660008083815260200190815260200160002060010160009054906101000a900473ffffffffffffffffffffffffffffffffffffffff1673ffffffffffffffffffffffffffffffffffffffff161415611817576040517f08c379a000000000000000000000000000000000000000000000000000000000815260040161180e9061310d565b60405180910390fd5b82600260003373ffffffffffffffffffffffffffffffffffffffff1673ffffffffffffffffffffffffffffffffffffffff16815260200190815260200160002060008481526020019081526020016000205410156118aa576040517f08c379a00000000000000000000000000000000000000000000000000000000081526004016118a19061304d565b60405180910390fd5b61190d83600260003373ffffffffffffffffffffffffffffffffffffffff1673ffffffffffffffffffffffffffffffffffffffff16815260200190815260200160002060008581526020019081526020016000205461258990919063ffffffff16565b600260003373ffffffffffffffffffffffffffffffffffffffff1673ffffffffffffffffffffffffffffffffffffffff16815260200190815260200160002060008481526020019081526020016000208190555060008083815260200190815260200160002060010160009054906101000a900473ffffffffffffffffffffffffffffffffffffffff1673ffffffffffffffffffffffffffffffffffffffff1663a9059cbb33856040518363ffffffff1660e01b81526004016119d1929190612f5a565b602060405180830381600087803b1580156119eb57600080fd5b505af11580156119ff573d6000803e3d6000fd5b505050506040513d601f19601f82011682018060405250611a239190810190612834565b50505050565b606080600180549050604051908082528060200260200182016040528015611a6b57816020015b611a586126f3565b815260200190600190039081611a505790505b50905060008090505b600180549050811015611b4857604051806040016040528060008060018581548110611a9c57fe5b9060005260206000200154815260200190815260200160002060000154815260200160008060018581548110611ace57fe5b9060005260206000200154815260200190815260200160002060010160009054906101000a900473ffffffffffffffffffffffffffffffffffffffff1673ffffffffffffffffffffffffffffffffffffffff16815250828281518110611b3057fe5b60200260200101819052508080600101915050611a74565b508091505090565b80600073ffffffffffffffffffffffffffffffffffffffff1660008083815260200190815260200160002060010160009054906101000a900473ffffffffffffffffffffffffffffffffffffffff1673ffffffffffffffffffffffffffffffffffffffff161415611bf6576040517f08c379a0000000000000000000000000000000000000000000000000000000008152600401611bed9061310d565b60405180910390fd5b60008083815260200190815260200160002060010160009054906101000a900473ffffffffffffffffffffffffffffffffffffffff1673ffffffffffffffffffffffffffffffffffffffff166323b872dd3330866040518463ffffffff1660e01b8152600401611c6893929190612f23565b602060405180830381600087803b158015611c8257600080fd5b505af1158015611c96573d6000803e3d6000fd5b505050506040513d601f19601f82011682018060405250611cba9190810190612834565b50611d1e83600260003373ffffffffffffffffffffffffffffffffffffffff1673ffffffffffffffffffffffffffffffffffffffff1681526020019081526020016000206000858152602001908152602001600020546125d390919063ffffffff16565b600260003373ffffffffffffffffffffffffffffffffffffffff1673ffffffffffffffffffffffffffffffffffffffff168152602001908152602001600020600084815260200190815260200160002081905550505050565b83600073ffffffffffffffffffffffffffffffffffffffff1660008083815260200190815260200160002060010160009054906101000a900473ffffffffffffffffffffffffffffffffffffffff1673ffffffffffffffffffffffffffffffffffffffff161415611e1d576040517f08c379a0000000000000000000000000000000000000000000000000000000008152600401611e149061310d565b60405180910390fd5b847f4441490000000000000000000000000000000000000000000000000000000000811415611e81576040517f08c379a0000000000000000000000000000000000000000000000000000000008152600401611e789061308d565b60405180910390fd5b600180811115611e8d57fe5b836001811115611e9957fe5b1415611f375784600260003373ffffffffffffffffffffffffffffffffffffffff1673ffffffffffffffffffffffffffffffffffffffff1681526020019081526020016000206000888152602001908152602001600020541015611f32576040517f08c379a0000000000000000000000000000000000000000000000000000000008152600401611f29906130cd565b60405180910390fd5b611ffd565b611f4a848661262890919063ffffffff16565b600260003373ffffffffffffffffffffffffffffffffffffffff1673ffffffffffffffffffffffffffffffffffffffff16815260200190815260200160002060007f44414900000000000000000000000000000000000000000000000000000000008152602001908152602001600020541015611ffc576040517f08c379a0000000000000000000000000000000000000000000000000000000008152600401611ff3906130ed565b60405180910390fd5b5b600060036000888152602001908152602001600020600085600181111561202057fe5b815260200190815260200160002090508060405180610100016040528060055481526020013373ffffffffffffffffffffffffffffffffffffffff16815260200186600181111561206d57fe5b81526020018981526020018881526020016000815260200187815260200142815250908060018154018082558091505090600182039060005260206000209060070201600090919290919091506000820151816000015560208201518160010160006101000a81548173ffffffffffffffffffffffffffffffffffffffff021916908373ffffffffffffffffffffffffffffffffffffffff16021790555060408201518160010160146101000a81548160ff0219169083600181111561212f57fe5b0217905550606082015181600201556080820151816003015560a0820151816004015560c0820151816005015560e0820151816006015550505060008082805490501161217d576000612186565b60018280549050035b90505b6000811115612547576000600181111561219f57fe5b8560018111156121ab57fe5b1480156121f457508181815481106121bf57fe5b9060005260206000209060070201600501548260018303815481106121e057fe5b906000526020600020906007020160050154115b156121fe57612547565b60018081111561220a57fe5b85600181111561221657fe5b14801561225f575081818154811061222a57fe5b90600052602060002090600702016005015482600183038154811061224b57fe5b906000526020600020906007020160050154105b1561226957612547565b612271612726565b82600183038154811061228057fe5b906000526020600020906007020160405180610100016040529081600082015481526020016001820160009054906101000a900473ffffffffffffffffffffffffffffffffffffffff1673ffffffffffffffffffffffffffffffffffffffff1673ffffffffffffffffffffffffffffffffffffffff1681526020016001820160149054906101000a900460ff16600181111561231857fe5b600181111561232357fe5b815260200160028201548152602001600382015481526020016004820154815260200160058201548152602001600682015481525050905082828154811061236757fe5b906000526020600020906007020183600184038154811061238457fe5b9060005260206000209060070201600082015481600001556001820160009054906101000a900473ffffffffffffffffffffffffffffffffffffffff168160010160006101000a81548173ffffffffffffffffffffffffffffffffffffffff021916908373ffffffffffffffffffffffffffffffffffffffff1602179055506001820160149054906101000a900460ff168160010160146101000a81548160ff0219169083600181111561243457fe5b021790555060028201548160020155600382015481600301556004820154816004015560058201548160050155600682015481600601559050508083838154811061247b57fe5b90600052602060002090600702016000820151816000015560208201518160010160006101000a81548173ffffffffffffffffffffffffffffffffffffffff021916908373ffffffffffffffffffffffffffffffffffffffff16021790555060408201518160010160146101000a81548160ff021916908360018111156124fe57fe5b0217905550606082015181600201556080820151816003015560a0820151816004015560c0820151816005015560e0820151816006015590505081806001900392505050612189565b6005600081548092919060010191905055505050505050505050565b600460009054906101000a900473ffffffffffffffffffffffffffffffffffffffff1681565b60006125cb83836040518060400160405280601e81526020017f536166654d6174683a207375627472616374696f6e206f766572666c6f770000815250612698565b905092915050565b60008082840190508381101561261e576040517f08c379a00000000000000000000000000000000000000000000000000000000081526004016126159061302d565b60405180910390fd5b8091505092915050565b60008083141561263b5760009050612692565b600082840290508284828161264c57fe5b041461268d576040517f08c379a0000000000000000000000000000000000000000000000000000000008152600401612684906130ad565b60405180910390fd5b809150505b92915050565b60008383111582906126e0576040517f08c379a00000000000000000000000000000000000000000000000000000000081526004016126d7919061300b565b60405180910390fd5b5060008385039050809150509392505050565b604051806040016040528060008019168152602001600073ffffffffffffffffffffffffffffffffffffffff1681525090565b60405180610100016040528060008152602001600073ffffffffffffffffffffffffffffffffffffffff1681526020016000600181111561276357fe5b815260200160008019168152602001600081526020016000815260200160008152602001600081525090565b60008135905061279e816133a5565b92915050565b6000815190506127b3816133bc565b92915050565b6000813590506127c8816133d3565b92915050565b6000813590506127dd816133ea565b92915050565b6000813590506127f2816133fa565b92915050565b6000806040838503121561280b57600080fd5b60006128198582860161278f565b925050602061282a858286016127b9565b9150509250929050565b60006020828403121561284657600080fd5b6000612854848285016127a4565b91505092915050565b60006020828403121561286f57600080fd5b600061287d848285016127b9565b91505092915050565b6000806040838503121561289957600080fd5b60006128a7858286016127b9565b92505060206128b88582860161278f565b9150509250929050565b600080604083850312156128d557600080fd5b60006128e3858286016127b9565b92505060206128f4858286016127ce565b9150509250929050565b60008060006060848603121561291357600080fd5b6000612921868287016127b9565b9350506020612932868287016127e3565b9250506040612943868287016127ce565b9150509250925092565b60008060006060848603121561296257600080fd5b6000612970868287016127b9565b9350506020612981868287016127e3565b9250506040612992868287016127e3565b9150509250925092565b600080600080608085870312156129b257600080fd5b60006129c0878288016127b9565b94505060206129d1878288016127e3565b93505060406129e2878288016127e3565b92505060606129f3878288016127ce565b91505092959194509250565b600060208284031215612a1157600080fd5b6000612a1f848285016127e3565b91505092915050565b60008060408385031215612a3b57600080fd5b6000612a49858286016127e3565b9250506020612a5a858286016127b9565b9150509250929050565b6000612a708383612e19565b6101008301905092915050565b6000612a898383612ebb565b60408301905092915050565b612a9e8161330c565b82525050565b612aad816132a7565b82525050565b612abc816132a7565b82525050565b6000612acd82613239565b612ad78185613274565b9350612ae283613219565b8060005b83811015612b13578151612afa8882612a64565b9750612b058361325a565b925050600181019050612ae6565b5085935050505092915050565b6000612b2b82613244565b612b358185613285565b9350612b4083613229565b8060005b83811015612b71578151612b588882612a7d565b9750612b6383613267565b925050600181019050612b44565b5085935050505092915050565b612b87816132c5565b82525050565b612b96816132c5565b82525050565b612ba58161331e565b82525050565b612bb48161331e565b82525050565b6000612bc58261324f565b612bcf8185613296565b9350612bdf818560208601613354565b612be881613387565b840191505092915050565b6000612c00601b83613296565b91507f536166654d6174683a206164646974696f6e206f766572666c6f7700000000006000830152602082019050919050565b6000612c40600f83613296565b91507f62616c616e636520746f6f206c6f7700000000000000000000000000000000006000830152602082019050919050565b6000612c80600a83613296565b91507f6f6e6c792061646d696e000000000000000000000000000000000000000000006000830152602082019050919050565b6000612cc0601083613296565b91507f63616e6e6f7420747261646520444149000000000000000000000000000000006000830152602082019050919050565b6000612d00602183613296565b91507f536166654d6174683a206d756c7469706c69636174696f6e206f766572666c6f60008301527f77000000000000000000000000000000000000000000000000000000000000006020830152604082019050919050565b6000612d66601583613296565b91507f746f6b656e2062616c616e636520746f6f206c6f7700000000000000000000006000830152602082019050919050565b6000612da6601383613296565b91507f6461692062616c616e636520746f6f206c6f77000000000000000000000000006000830152602082019050919050565b6000612de6601983613296565b91507f7468697320746f6b656e20646f6573206e6f74206578697374000000000000006000830152602082019050919050565b61010082016000820151612e306000850182612eea565b506020820151612e436020850182612aa4565b506040820151612e566040850182612b9c565b506060820151612e696060850182612b7e565b506080820151612e7c6080850182612eea565b5060a0820151612e8f60a0850182612eea565b5060c0820151612ea260c0850182612eea565b5060e0820151612eb560e0850182612eea565b50505050565b604082016000820151612ed16000850182612b7e565b506020820151612ee46020850182612aa4565b50505050565b612ef381613302565b82525050565b612f0281613302565b82525050565b6000602082019050612f1d6000830184612ab3565b92915050565b6000606082019050612f386000830186612a95565b612f456020830185612ab3565b612f526040830184612ef9565b949350505050565b6000604082019050612f6f6000830185612a95565b612f7c6020830184612ef9565b9392505050565b60006020820190508181036000830152612f9d8184612ac2565b905092915050565b60006020820190508181036000830152612fbf8184612b20565b905092915050565b6000602082019050612fdc6000830184612b8d565b92915050565b6000604082019050612ff76000830185612b8d565b6130046020830184612ab3565b9392505050565b600060208201905081810360008301526130258184612bba565b905092915050565b6000602082019050818103600083015261304681612bf3565b9050919050565b6000602082019050818103600083015261306681612c33565b9050919050565b6000602082019050818103600083015261308681612c73565b9050919050565b600060208201905081810360008301526130a681612cb3565b9050919050565b600060208201905081810360008301526130c681612cf3565b9050919050565b600060208201905081810360008301526130e681612d59565b9050919050565b6000602082019050818103600083015261310681612d99565b9050919050565b6000602082019050818103600083015261312681612dd9565b9050919050565b60006020820190506131426000830184612ef9565b92915050565b60006101008201905061315e600083018b612ef9565b61316b602083018a612ab3565b6131786040830189612bab565b6131856060830188612b8d565b6131926080830187612ef9565b61319f60a0830186612ef9565b6131ac60c0830185612ef9565b6131b960e0830184612ef9565b9998505050505050505050565b600060a0820190506131db6000830188612ef9565b6131e86020830187612ef9565b6131f56040830186612ef9565b6132026060830185612ef9565b61320f6080830184612ef9565b9695505050505050565b6000819050602082019050919050565b6000819050602082019050919050565b600081519050919050565b600081519050919050565b600081519050919050565b6000602082019050919050565b6000602082019050919050565b600082825260208201905092915050565b600082825260208201905092915050565b600082825260208201905092915050565b60006132b2826132e2565b9050919050565b60008115159050919050565b6000819050919050565b60008190506132dd82613398565b919050565b600073ffffffffffffffffffffffffffffffffffffffff82169050919050565b6000819050919050565b600061331782613330565b9050919050565b6000613329826132cf565b9050919050565b600061333b82613342565b9050919050565b600061334d826132e2565b9050919050565b60005b83811015613372578082015181840152602081019050613357565b83811115613381576000848401525b50505050565b6000601f19601f8301169050919050565b600281106133a257fe5b50565b6133ae816132a7565b81146133b957600080fd5b50565b6133c5816132b9565b81146133d057600080fd5b50565b6133dc816132c5565b81146133e757600080fd5b50565b600281106133f757600080fd5b50565b61340381613302565b811461340e57600080fd5b5056fea365627a7a72315820536b3278d34c11d7b60ba32383921e6b8f698a700410a5b4ae26a71357a9b61c6c6578706572696d656e74616cf564736f6c63430005110040",
  "source": "// SPDX-License-Identifier: MIT\npragma solidity >=0.4.22 <0.9.0;\npragma experimental ABIEncoderV2;\n\nimport '@openzeppelin/contracts/token/ERC20/IERC20.sol';\nimport '@openzeppelin/contracts/math/SafeMath.sol';\n\ncontract Dex {\n\n    using SafeMath for uint;\n       \n    enum Side {\n        BUY,\n        SELL\n    }\n    \n    struct Token {\n        bytes32 ticker;\n        address tokenAddress;\n    }\n    \n    struct Order {\n        uint id;\n        address trader;\n        Side side;\n        bytes32 ticker;\n        uint amount;\n        uint filled;\n        uint price;\n        uint date;\n    }\n    \n    mapping(bytes32 => Token) public tokens;\n    bytes32[] public tokenList;\n    mapping(address => mapping(bytes32 => uint)) public traderBalances;\n    mapping(bytes32 => mapping(uint => Order[])) public orderBook;\n    address public admin;\n    uint public nextOrderId;\n    uint public nextTradeId;\n    bytes32 constant DAI = bytes32('DAI');\n    \n    event NewTrade(\n        uint tradeId,\n        uint orderId,\n        bytes32 indexed ticker,\n        address indexed trader1,\n        address indexed trader2,\n        uint amount,\n        uint price,\n        uint date\n    );\n    \n    constructor() public {\n        admin = msg.sender;\n    }\n\n    function getOrders(\n      bytes32 ticker, \n      Side side) \n      external \n      view\n      returns(Order[] memory) {\n      return orderBook[ticker][uint(side)];\n    }\n\n    function getTokens() \n      external \n      view \n      returns(Token[] memory) {\n      Token[] memory _tokens = new Token[](tokenList.length);\n      for (uint i = 0; i < tokenList.length; i++) {\n        _tokens[i] = Token(\n          tokens[tokenList[i]].ticker,\n          tokens[tokenList[i]].tokenAddress\n        );\n      }\n      return _tokens;\n    }\n    \n    function addToken(\n        bytes32 ticker,\n        address tokenAddress)\n        onlyAdmin()\n        external {\n        tokens[ticker] = Token(ticker, tokenAddress);\n        tokenList.push(ticker);\n    }\n    \n    function deposit(\n        uint amount,\n        bytes32 ticker)\n        tokenExist(ticker)\n        external {\n        IERC20(tokens[ticker].tokenAddress).transferFrom(\n            msg.sender,\n            address(this),\n            amount\n        );\n        traderBalances[msg.sender][ticker] = traderBalances[msg.sender][ticker].add(amount);\n    }\n    \n    function withdraw(\n        uint amount,\n        bytes32 ticker)\n        tokenExist(ticker)\n        external {\n        require(\n            traderBalances[msg.sender][ticker] >= amount,\n            'balance too low'\n        ); \n        traderBalances[msg.sender][ticker] = traderBalances[msg.sender][ticker].sub(amount);\n        IERC20(tokens[ticker].tokenAddress).transfer(msg.sender, amount);\n    }\n    \n    function createLimitOrder(\n        bytes32 ticker,\n        uint amount,\n        uint price,\n        Side side)\n        tokenExist(ticker)\n        tokenIsNotDai(ticker)\n        external {\n        if(side == Side.SELL) {\n            require(\n                traderBalances[msg.sender][ticker] >= amount, \n                'token balance too low'\n            );\n        } else {\n            require(\n                traderBalances[msg.sender][DAI] >= amount.mul(price),\n                'dai balance too low'\n            );\n        }\n        Order[] storage orders = orderBook[ticker][uint(side)];\n        orders.push(Order(\n            nextOrderId,\n            msg.sender,\n            side,\n            ticker,\n            amount,\n            0,\n            price,\n            now \n        ));\n        \n        uint i = orders.length > 0 ? orders.length - 1 : 0;\n        while(i > 0) {\n            if(side == Side.BUY && orders[i - 1].price > orders[i].price) {\n                break;   \n            }\n            if(side == Side.SELL && orders[i - 1].price < orders[i].price) {\n                break;   \n            }\n            Order memory order = orders[i - 1];\n            orders[i - 1] = orders[i];\n            orders[i] = order;\n            i--;\n        }\n        nextOrderId++;\n    }\n    \n    function createMarketOrder(\n        bytes32 ticker,\n        uint amount,\n        Side side)\n        tokenExist(ticker)\n        tokenIsNotDai(ticker)\n        external {\n        if(side == Side.SELL) {\n            require(\n                traderBalances[msg.sender][ticker] >= amount, \n                'token balance too low'\n            );\n        }\n        Order[] storage orders = orderBook[ticker][uint(side == Side.BUY ? Side.SELL : Side.BUY)];\n        uint i;\n        uint remaining = amount;\n        \n        while(i < orders.length && remaining > 0) {\n            uint available = orders[i].amount.sub(orders[i].filled);\n            uint matched = (remaining > available) ? available : remaining;\n            remaining = remaining.sub(matched);\n            orders[i].filled = orders[i].filled.add(matched);\n            emit NewTrade(\n                nextTradeId,\n                orders[i].id,\n                ticker,\n                orders[i].trader,\n                msg.sender,\n                matched,\n                orders[i].price,\n                now\n            );\n            if(side == Side.SELL) {\n                traderBalances[msg.sender][ticker] = traderBalances[msg.sender][ticker].sub(matched);\n                traderBalances[msg.sender][DAI] = traderBalances[msg.sender][DAI].add(matched.mul(orders[i].price));\n                traderBalances[orders[i].trader][ticker] = traderBalances[orders[i].trader][ticker].add(matched);\n                traderBalances[orders[i].trader][DAI] = traderBalances[orders[i].trader][DAI].sub(matched.mul(orders[i].price));\n            }\n            if(side == Side.BUY) {\n                require(\n                    traderBalances[msg.sender][DAI] >= matched.mul(orders[i].price),\n                    'dai balance too low'\n                );\n                traderBalances[msg.sender][ticker] = traderBalances[msg.sender][ticker].add(matched);\n                traderBalances[msg.sender][DAI] = traderBalances[msg.sender][DAI].sub(matched.mul(orders[i].price));\n                traderBalances[orders[i].trader][ticker] = traderBalances[orders[i].trader][ticker].sub(matched);\n                traderBalances[orders[i].trader][DAI] = traderBalances[orders[i].trader][DAI].add(matched.mul(orders[i].price));\n            }\n            nextTradeId++;\n            i++;\n        }\n        \n        i = 0;\n        while(i < orders.length && orders[i].filled == orders[i].amount) {\n            for(uint j = i; j < orders.length - 1; j++ ) {\n                orders[j] = orders[j + 1];\n            }\n            orders.pop();\n            i++;\n        }\n    }\n   \n    modifier tokenIsNotDai(bytes32 ticker) {\n       require(ticker != DAI, 'cannot trade DAI');\n       _;\n    }     \n    \n    modifier tokenExist(bytes32 ticker) {\n        require(\n            tokens[ticker].tokenAddress != address(0),\n            'this token does not exist'\n        );\n        _;\n    }\n    \n    modifier onlyAdmin() {\n        require(msg.sender == admin, 'only admin');\n        _;\n    }\n}",
  "sourcePath": "/Users/alameen/Documents/solidity/token_exchange_app/contracts/Dex.sol",
  "compiler": {
    "name": "solc",
    "version": "0.5.17+commit.d19bba13.Emscripten.clang"
  },
  "schemaVersion": "3.4.10",
  "updatedAt": "2022-11-03T13:54:18.484Z",
  "networkType": "ethereum",
  "devdoc": {
    "methods": {}
  },
  "userdoc": {
    "methods": {}
  }
}